:020000040800F2
:1000000000180020C1000008FB010008FB010008E7
:10001000FB010008FB010008FB01000800000000D4
:10002000000000000000000000000000FB010008CC
:100030000000000000000000FB010008FB010008B8
:10004000ED010008ED010008ED010008ED010008D8
:10005000ED010008ED010008ED010008ED010008C8
:10006000ED010008ED010008ED010008ED010008B8
:10007000ED010008ED010008ED010008ED010008A8
:10008000ED0100080000000000000000ED01000884
:1000900000000000ED010008ED010008ED0100087E
:1000A00000000000ED010008ED010008ED0100086E
:1000B000ED01000800000000ED010008ED0100085E
:1000C00080B500AF09480A4901E0002204C181421D
:1000D000FBD308480849814204D2084A08CA08C12B
:1000E0008142FBD300F00CF830BFFDE75C0000203C
:1000F00000000020100A002024090020801A0008B7
:10010000F0B503AFC1B03548007800F0E3F800F077
:100110008AF800F091FC01A8802101F05EFC21AC7E
:10012000601D7B2101F053FC202020712C48219080
:1001300005202C4C2C4E009034E0812D41D2012121
:1001400049028A4242D821A90818314601F0F4FB3D
:100150000020206000E005460020002D22D0681E0F
:10016000802837D221A9085C0A2828461AD13446AB
:1001700001AE21A930462A4601F0E7FBADB2304678
:100180002646184C294600F04DFC0028009809D05E
:10019000642000F0B7F801A8294600F043FC0028CD
:1001A000F6D100982268002AD5D015180021012325
:1001B000954200D219460029BFD0294600F02DF8FB
:1001C000FEDE8021284600F01CF8FEDE104600F01E
:1001D00018F8FEDE00F01AF8FEDEC046C000000887
:1001E0006D6F6D6F5C0000206000002080B500AF77
:1001F00000F003F8FEDE00BEFEE7EFF30880FAE74A
:10020000FEDE80B500AF00F006F8FEDE80B500AF80
:1002100000F001F8FEDEFEDEFEDE80B500AFFFF787
:10022000FAFFFEDEFEE74FF4803330B595B00124CF
:100230000B930022022512934FF480130AA80A940C
:100240000C920E941195139300F0E6F800B1FEE7BE
:100250000F2305934FF4806307900990214605A86A
:100260000695089300F0A2FA00B1FEE7102301936F
:100270004FF4800301A8049300F042FB044600B150
:10028000FEE700F037FB4FF47A73B0FBF3F000F0B9
:100290009BF8042000F0AEF8224621464FF0FF30D4
:1002A00000F052F815B030BD70470000084B10B593
:1002B000044618684FF47A73B0FBF3F000F084F84A
:1002C000002221464FF0FF3000F03EF8002010BD24
:1002D00024090020074A08B51368032043F01003DF
:1002E000136000F01FF80020FFF7E0FFFFF7DCFFCE
:1002F000002008BD00200240014B1868704700BF75
:100300000000002037B50190FFF7F6FF0546019C7D
:10031000631C18BF0134FFF7EFFF401BA042FAD364
:1003200003B030BD074A0002D36800F4E06023F454
:10033000E0631B041B0C43F0BF6343F4003303432F
:10034000D360704700ED00E0174B30B5DC68C4F3B4
:100350000224C4F10703251D042B28BF0423062D06
:100360004FF0010598BF002405FA03F303F1FF33B2
:1003700088BF033C1940A14005FA04F4013C224027
:10038000002842EA01024FEA0212AFBF00F16040CA
:10039000064B00F00F00D2B2A5BFD2B200F561400B
:1003A0001A5480F8002330BD00ED00E014ED00E0A9
:1003B0000123420900F01F0003FA00F0014B43F84B
:1003C0002200704700E100E00138B0F1807F0AD2DE
:1003D000F021064B064A586082F8231000200722BD
:1003E00098601A6070470120704700BF10E000E07D
:1003F00000ED00E0044B04281A680CBF42F0040230
:1004000022F004021A60704710E000E00AB10161B6
:1004100070470904FBE7000003682DE9F341DB079F
:10042000054610D42B689F075ED42B68190700F18E
:1004300095802B685A0700F1BF80EA69002A40F0D6
:100440002D81002014E0904C636803F00C03042B12
:1004500007D0636803F00C03082B0CD16368DE033C
:1004600009D523689C03DDD56B68002BDAD1012008
:1004700002B0BDE8F0816B68B3F5803F10D123680E
:1004800043F480332360FFF737FF06462368980361
:10049000C8D4FFF731FF801B6428F7D90320E7E7B2
:1004A0009BB9236823F480332360236823F48023DB
:1004B0002360FFF721FF064623689903B2D5FFF7B3
:1004C0001BFF801B6428F7D9E8E7B3F5A02F23684A
:1004D00003D143F480232360D1E723F480332360E6
:1004E000236823F48023CDE7674C636813F00C0F77
:1004F00007D0636803F00C03082B10D16368DA039C
:100500000DD423689B0702D52B69012BAFD123683B
:100510006A6923F0F80343EAC203236085E72A6986
:100520005A4B6AB101221A60FFF7E6FE06462368BD
:100530009F07ECD4FFF7E0FE801B0228F7D9ADE758
:100540001A60FFF7D9FE0646236898077FF56DAF5E
:10055000FFF7D2FE801B0228F6D99FE7AA694A4C12
:100560004B4BDAB101221A60FFF7C6FE0646636AFA
:100570009B070DD54FF4FA52464B1B68B3FBF2F3C1
:10058000019300BF019B5A1E0192002BF9D150E745
:10059000FFF7B2FE801B0228E9D97FE71A60FFF758
:1005A000ABFE0646636A9F077FF543AFFFF7A4FEE5
:1005B000801B0228F6D971E7334CE369D80024D4B4
:1005C0000127E36943F08053E361E36903F080535B
:1005D0000093009B304E3368D90518D5EB68012B8A
:1005E00026D1236A43F001032362FFF785FE41F21F
:1005F00088368046236A9B073FD5002F3FF41DAF06
:10060000E36923F08053E36117E70027E2E73368EB
:1006100043F480733360FFF76FFE80463368DA057A
:10062000DCD4FFF769FEA0EB08006428F6D935E7B3
:10063000ABB9236A41F2883823F001032362236AAD
:1006400023F004032362FFF757FE0646236A980748
:10065000D3D5FFF751FE801B4045F7D91EE7052B88
:10066000236A03D143F004032362BAE723F00103B2
:100670002362236A23F00403B6E7FFF73DFEA0EBF5
:100680000800B042B6D909E700100240000042421B
:10069000800442422409002000700040224C63681C
:1006A00003F00C03082B3FF4E2AE00231F4E022A96
:1006B00033602BD1FFF720FE0746236899011FD432
:1006C0002B6AB3F5803F05D16268A96822F4003235
:1006D0000A436260696A62680B4322F4741213432E
:1006E000636001233360FFF707FE054623689A0124
:1006F0003FF5A7AEFFF700FE401B0228F6D9CDE676
:10070000FFF7FAFDC01B0228D7D9C7E6FFF7F4FDB3
:10071000054623689B017FF594AEFFF7EDFD401B76
:100720000228F6D9BAE600BF00100240600042423B
:1007300030B51A4B87B002AC03F110052246186899
:100740005968083303C2AB421446F7D101238DF830
:100750000430022312498DF805304B6803F00C0277
:10076000082A18D1C3F38342DB0348BF4B6806A8AD
:10077000024448BFC3F3404312F8100C41BF06AA1D
:100780009B1813F8142C074B54BF074BB3FBF2F321
:10079000584307B030BD0348FBE700BFE819000825
:1007A0000010024000127A0000093D004D4A2DE978
:1007B000F0411368054603F007038B420E4628D329
:1007C0002A68910732D4D20738D4464A136803F016
:1007D00007039E4273D32A68434C12F0040F79D169
:1007E000130706D563682A6923F4605343EAC203FA
:1007F0006360FFF79DFF63683C4AC3F30313D35C58
:10080000D8403B4B18600020FFF750FD0020BDE8AA
:10081000F081136823F007030B431360136803F0A0
:1008200007039942CCD00120BDE8F0812E49A86889
:100830004B6823F0F00303434B60C4E76A682A4C1B
:10084000012A23681CD113F4003FECD0636841F205
:10085000883823F0030313436360FFF74DFD6B6893
:100860000746012B14D1636803F00C03042BACD0B2
:10087000FFF742FDC01B4045F5D90320BDE8F081DC
:10088000022A02D113F0007FDFE713F0020FDCE74A
:10089000022B0FD1636803F00C03082B95D0FFF7F0
:1008A0002BFDC01B4045F5D9E7E7FFF725FDC01B31
:1008B0004045E2D8636813F00C0FF6D185E7136862
:1008C00023F0070333431360136803F007039E42CA
:1008D000A9D180E76368E96823F4E0630B436360B0
:1008E0007EE700BF0020024000100240F819000817
:1008F00024090020014B1868704700BF240900201C
:1009000003682DE9F341D907054620D5354CE36945
:10091000DA0032D40127E36943F08053E361E369ED
:1009200003F080530193019B2F4E3368DB0526D5DE
:10093000236A13F4407336D1236A6A6823F4407340
:10094000134323621FB1E36923F08053E3612868F6
:10095000830706D5234AA968536823F440430B4311
:10096000536010F010001BD01E4AE9685368002045
:1009700023F480030B43536012E00027D4E733686D
:1009800043F480733360FFF7B7FC80463368D805C3
:10099000CED4FFF7B1FCA0EB08006428F6D9032001
:1009A00002B0BDE8F0816A6802F440729342C3D09D
:1009B00001200E4A236A1060002023F44071106069
:1009C0002162D907B8D5FFF797FC41F2883806466F
:1009D000236A9A07B0D4FFF78FFC801B4045F7D9F4
:1009E000DDE700BF001002400070004040044242BA
:1009F0000020704730B5084A084C431E3F305978F4
:100A000039B111684D1C156013F8015F83426554BC
:100A1000F5D1002030BD00BF5C0000206000002048
:100A2000002070470A4608B50146024800F044F924
:100A300040B208BDA000002010B5094C00220949B1
:100A4000204600F015F80849204600F026F8204618
:100A5000064900F04FF92046BDE8104000F024B8E8
:100A6000A0000020DC0900205C0900204C090020C7
:100A700008B580B1D0F8143213B10023C0F8143295
:100A800009B1C0F810120123027080F8FC3100F0A7
:100A9000C5F9002008BD022008BD19B1C0F8141224
:100AA000002070470220704708B500F0F5F90020DB
:100AB00008BD10B50446802100F01AFA2046BDE8B2
:100AC0001040002100F014BA30B588B105462B1A49
:100AD00015F8014BDBB2002CF9D15B000233138017
:100AE0000B7003234B700223013810F8015F05B926
:100AF00030BD5A1CCD54D2B20233DBB28C54F4E771
:100B000029230380004870479809002010B5D0F8C9
:100B10001842E36C012B06D1D0F81C322046DB686A
:100B200098470023E364002010BD00000A230380DF
:100B300000487047D009002038B50446D0F8185254
:100B4000D0F81C322846DB68984740232A4601210A
:100B5000204600F0E9F9002038BD000010B500245F
:100B6000D0F81832012283F850404FF40051024867
:100B7000FFF74CFC204610BD0010014038B50C7842
:100B8000054614F06004D0F818322DD0202C0CD17A
:100B90004A78023A092A21D8DFE802F01409202015
:100BA0002020201810058A781A6400241AE00122F7
:100BB00003F14001284600F0F7F8F6E74A88120AE8
:100BC0005A64F2E7012203F14401F3E701222846C7
:100BD000DA648A79194600F0F4F8E6E72846FFF768
:100BE00068FF0224204638BD4A780A2A1AD00B2A08
:100BF0001ED0062AF6D14B881B0A222B07D1CA88A1
:100C0000D0F81C32212A28BF21221968D2E7212BD3
:100C100005D1CA880849092A28BF0922CAE72146FE
:100C20002246C7E7012203F1480100F0BDF8D9E7E9
:100C30008A789A64D6E700BFC409002010B504463C
:100C4000812100F047F90121204600F043F9D4F852
:100C5000183253B1D4F81C329B689847D4F8180264
:100C600000F074F90023C4F81832002010BD70B5EC
:100C7000054602230322812100F01CF902230322EE
:100C80000121284600F016F9542000F05BF90646D1
:100C9000C5F8180270B10024D5F81C3280F8504015
:100CA0005B689847402332460121284600F03CF912
:100CB000204670BD012070BD70B5134690F8FC2130
:100CC000032A13D1D0F81862012496F850506DB958
:100CD0000A4686F85040812100F018F92A464FF460
:100CE00000510348FFF792FB284670BD012070BDFC
:100CF0000010014019B1C0F81C12002070470220FA
:100D000070470000122301480B807047F80900204B
:100D1000042301480B8070470C0A002010B5044CD6
:100D20000A4604482146FFF7CFFE204610BD00BF0B
:100D3000C40200202F1A000810B5044C0A460448CB
:100D40002146FFF7C1FE204610BD00BFC4020020AF
:100D5000421A000810B5044C0A4604482146FFF721
:100D6000B3FE204610BD00BFC40200205F1A000879
:100D700010B5044C0A4604482146FFF7A5FE20465C
:100D800010BD00BFC4020020081A000810B5044CB2
:100D90000A4604482146FFF797FE204610BD00BFD3
:100DA000C40200201A1A00081346022210B5C0F827
:100DB000F42183610A46C361002100F0A7F80020F6
:100DC00010BD1346032210B5C0F8F421C0F8083155
:100DD0000A46C0F80C31002100F0A6F8002010BD32
:100DE00007B50D4B02689A4212D103F5DA33DA697E
:100DF000142042F40002DA610022DB69114603F498
:100E000000030193019BFFF79FFA1420FFF7D0FA2C
:100E100003B05DF804FB00BF005C004010B5022386
:100E200008224FF0030E04461849194880E80E4086
:100E30000023C0F85C44C4F820028361C3610362EC
:100E400000F086F820B14FF48D711248FFF7EAF9EF
:100E5000002218231146D4F8200200F094F95823F8
:100E600000228021D4F8200200F08DF9982300227E
:100E70008121D4F8200200F086F9D8230022012134
:100E8000D4F8200200F07FF9002010BD005C004083
:100E9000C4040020701A000808B5D0F8200200F041
:100EA000C0F803289ABF024B185C022008BD00BF9F
:100EB0006C1A000810B51C46D0F8200213462246D2
:100EC00000F0C6F803289ABF014B185C022010BD41
:100ED0006C1A000808B5D0F8200200F0DCF80328EE
:100EE0009ABF024B185C022008BD00BF6C1A0008B4
:100EF00008B5D0F8200200F01DF903289ABF024B74
:100F0000185C022008BD00BF6C1A000808B5D0F8B4
:100F1000200200F0F9F803289ABF024B185C022067
:100F200008BD00BF6C1A000808B5D0F8200200F018
:100F3000D3F803289ABF024B185C022008BD00BFFB
:100F40006C1A000800487047040000207047704782
:100F50002DE9F041044686B0002860D090F829348D
:100F600003F0FF021BB980F82824FFF739FF25465C
:100F700003236E4655F8100B84F8293400F02BF942
:100F80000FCD0FC62B6804F10408336098E80E00FB
:100F9000206800F010F90021206800F026F90021F7
:100FA000234622460126084604F1100582F828103F
:100FB000918601310F2982F8296082F82B00906315
:100FC000D063106402F12002F0D10022174683F8AA
:100FD00028229A8601320F2A83F8297283F82B720D
:100FE000C3F83872C3F83C72C3F8407203F12003AF
:100FF000EDD16E460FCD0FC62B68336098E80E001A
:10100000206800F0F4F8012384F82470206884F844
:10101000293400F07BFB002006B0BDE8F081012000
:10102000FAE790F8283410B5012B04460ED00121C0
:1010300080F82814FFF78BFF206800F065FB20681C
:1010400000F0C0F8002084F8280410BD022010BD74
:1010500038B5044648B2002801F07F05B5BF04EB5F
:10106000451104EB4111283101F50A71C00F0D70D3
:101070004870CB7094F828340A61012B09D0012301
:10108000206884F8283400F0CDF8002084F8280483
:1010900038BD022038BD4BB2002B01F07F02B5BF36
:1010A00000EB421100EB4111283101F50A71DB0F11
:1010B00010B50A704B7090F828340446012B09D003
:1010C000012380F82834006800F01EFA002084F81C
:1010D000280410BD022010BD70B5002601F07F016C
:1010E0004D01441984F8281205F50A710144C4F829
:1010F0003C22C4F84032C4F8446284F82962006893
:1011000000F01AFB304670BD01F07F0170B54D0153
:10111000441923640026012384F8281005F12801CE
:101120000144E263666484F82930006800F004FB3F
:10113000304670BD012238B54BB2002B01F07F055F
:10114000B5BF00EB451100EB4111283101F50A71E3
:10115000DB0FEDB28A700D704B7090F828340446A6
:1011600093420ED080F82824006800F09BFA25B93D
:1011700004F22C41206800F0CBFA002084F8280407
:1011800038BD022038BD11F0800F1BBF01F07F0178
:1011900000EB411000EB4110283008BF00F50A7049
:1011A0001AB982728380002070470122C3801B0C11
:1011B00082720381F7E784B001A880E80E0004B0D2
:1011C00000207047B0F840309BB243F43F43A0F892
:1011D000403000207047B0F8403023F474535B0473
:1011E0005B0CA0F84030002070470020704784B0AE
:1011F00010B503AC84E80E00BDE8104000220123C6
:10120000A0F84030A0F84020A0F84420A0F85020DA
:10121000B0F8403004B09BB243F43F43A0F84030F4
:101220001046704770B5CB780A78032B0FD8DFE8EB
:1012300003F00264505930F8223023F4EC4323F0D9
:1012400070031B041B0C43F4007320F8223040F69B
:101250000F730C7830F8242044F4004545F08005E5
:101260001A402A4320F824208A7A0D78002A40F078
:1012700097804C788A88002C4AD0B0F850405208A9
:10128000A4B204EBC50400EB44045200C4F80024EB
:101290000C7830F82420520608D530F8242013406A
:1012A00043F4004343F0C00320F824300A7830F8B8
:1012B000223023F4E04323F040031B041B0C83F093
:1012C000200343F4004343F0800320F82230002041
:1012D00070BD30F8223023F4EC4323F070031B047C
:1012E0001B0CB2E730F8223023F4EC4323F07003F8
:1012F0001B041B0C43F4C063A7E730F8223023F42F
:10130000EC4323F070031B041B0C43F480639CE745
:10131000B0F8503052089BB2043303EBC5035200BF
:1013200000F5806444F81320B0F850200D6992B2A3
:101330000B7806323E2D02EBC30229D9C5F34F16B6
:10134000EB0604BF06F1FF339EB26E4B43EA8623E1
:101350009BB244F812300A7830F822305E040BD584
:1013600030F8223023F0F0031B051B0D43F44043FB
:1013700043F0800320F822300A7830F8223023F43A
:10138000804323F070031B041B0C83F4405398E745
:10139000C5F34F03ED0744BF01339BB29B02D7E770
:1013A00030F8252022F4F8721205120D42F40142A1
:1013B00042F0800220F82520B0F850200C7892B23C
:1013C00002EBC402CC8800F580656408640045F82F
:1013D0001240B0F850200C7892B2043202EBC402F2
:1013E0000C896408640045F812404A780C78002A99
:1013F00047D130F82420550408D530F82420134074
:1014000043F4404343F0800320F824300A7830F856
:1014100022305C060BD530F8223023F0F0031B0598
:101420001B0D43F4004343F0C00320F822300A7838
:1014300030F8223023F0F0031B051B0D43F400436A
:1014400043F0C00320F8223048F280020C7830F8D4
:10145000243023F4804323F070031B041B0C83F41B
:101460004053134320F82430097830F8213023F416
:10147000E04323F040031B041B0C134320F82130EE
:1014800025E730F82420520408D530F824201340F2
:1014900043F4404343F0800320F824300A7830F8C6
:1014A00022305B060BD530F8223023F0F0031B0509
:1014B0001B0D43F4004343F0C00320F822300A78A8
:1014C00030F8223023F0F0031B051B0D43F440439A
:1014D00043F0800320F8223048F280020C7830F884
:1014E000243023F4E04323F040031B041B0C13437C
:1014F00020F82430097830F8213023F4804323F099
:101500007003B8E70080FFFF10B58C7A4A780B783B
:10151000CCBB02B330F8232052060BD530F8232081
:1015200022F0F0021205120D42F4004242F0C00215
:1015300020F823200A7830F8223023F4E04323F007
:1015400040031B041B0C43F4004343F0800320F8CA
:101550002230002010BD30F8232054040BD530F881
:10156000232022F0F0021205120D42F4404242F014
:10157000800220F823200A7830F8223023F48043B8
:1015800023F07003DDE7002A48D130F8232052040D
:101590000BD530F8232022F0F0021205120D42F490
:1015A000404242F0800220F823200A7830F82230AE
:1015B0005C060BD530F8223023F0F0031B051B0D21
:1015C00043F4004343F0C00320F822300A7830F897
:1015D000223023F0F0031B051B0D43F4004343F0BE
:1015E000C00320F8223048F280020C7830F8243012
:1015F00023F4804323F070031B041B0C134320F8D7
:101600002430097830F8213023F4E04323F04003FC
:101610001B041B0C134320F821309AE730F82320D9
:1016200052040BD530F8232022F0F0021205120DDF
:1016300042F4404242F0800220F823200A7830F839
:1016400022305B060BD530F8223023F0F0031B0567
:101650001B0D43F4004343F0C00320F822300A7806
:1016600030F8223023F0F0031B051B0D43F44043F8
:1016700043F0800320F8223048F280020C7830F8E2
:10168000243023F4E04323F040031B041B0C1343DA
:1016900020F82430097830F8213023F4804323F0F7
:1016A0007003B5E70A788AB9038823F4804323F0EE
:1016B00040031B041B0C83F4805383F0100343F49A
:1016C000004343F080030380002070474B7883B1D0
:1016D00030F8223023F4E04323F040031B041B0CBA
:1016E00083F0100343F4004343F0800320F82230DA
:1016F000EAE730F8223023F4804323F070031B0420
:101700001B0C83F48053EDE70020704700207047E6
:101710000020704710B50024013300F580605B1095
:1017200000EB4202A34200D110BD31F8020B22F8B7
:1017300024000134F6E7000070B50E468A69497846
:10174000054601293369B07A66D19A421C469BBF8F
:1017500000231446D21AB36188BFB261A3B210BB92
:10176000B28871692846FFF7D5FFB5F85030327856
:101770009BB2023303EBC20305EB4303C3F80044FF
:10178000327835F8223023F4E04323F040031B0481
:101790001B0C83F0300343F4004343F0800325F82F
:1017A0002230002070BD327835F82210D20011F0BE
:1017B000400FB5F8501089B21AD002310A4405EB37
:1017C0004202C2F80044328971692846FFF7A2FF3D
:1017D000737832789BB935F8223023F0F0031B057B
:1017E0001B0D43F4004343F0C00325F82230C7E744
:1017F0000A4405EB4202C2F80444F288E4E7012BF4
:10180000BED135F8223023F0F0031B051B0D43F445
:10181000404343F08003E8E79A4293BF0023D21A83
:10182000B261B36198BF1346327870BBB5F85010FF
:101830003E2B89B201F1060101EBC20105F5806082
:1018400018D9C3F34F12DB0604BF02F1FF339AB27B
:10185000384B43EA82239BB240F81130327835F896
:10186000223023F4804323F070031B041B0C83F409
:10187000405390E7C3F34F02DC0744BF013292B2FA
:10188000920292B240F81120E8E7B9B9B5F85010C9
:101890003E2B89B201F1020101EBC20105F5806422
:1018A00028D9C3F34F10DA0604BF00F1FF3290B21B
:1018B000204A42EA802292B244F8112072783178AC
:1018C0005ABBB5F850203E2B92B202F1060202EB51
:1018D000C10205F5806015D9C3F34F11DC0604BFC2
:1018E00001F1FF3399B2134B43EA81239BB240F8D5
:1018F0001230B3E7C3F34F02D80744BF013292B2AC
:101900009202D8E7C3F34F01DB0744BF013189B22C
:10191000890289B240F81210A0E7012A9ED1B5F8D9
:10192000502092B2023202EBC10205EB4202C2F831
:10193000003493E70080FFFF002A05D00B78037086
:10194000491C401C521EF9D17047F0B503AF81B05D
:10195000042A0FD30323DD43131F00931D402C1DC6
:101960000B19041940C940C0121F032AFAD8009865
:10197000421B01E004460B4620461946FFF7DCFFF8
:1019800001B0F0BD002903D00270401C491EFBD1FC
:101990007047F0B503AF81B01306D2B213431504FC
:1019A0001D4314022C4304290BD30323DD430E1FD4
:1019B000354043191B1D10C0091F0329FBD8711B9B
:1019C00000E003461846FFF7DDFF01B0F0BD80B52B
:1019D00000AF0022FFF7D6FF80BD80B500AF002228
:0619E000FFF7D7FF80BDF8
:1019E80002030405060708090A0B0C0D0E0F101058
:1019F80000000000000000000102030406070809B7
:101A0800437573746F6D2048494420436F6E66694F
:101A18006700437573746F6D2048494420496E749C
:101A28006572666163650053544D6963726F656CD6
:101A3800656374726F6E6963730053544D3332205B
:101A4800437573746F6D2048756D616E20696E748F
:101A58006572666163650030303030303030303068
:101A68003031410000020102632F757362645F63C5
:081A78006F6E662E6300000092
:101A800000A24A0405010901A1010900150026FF71
:101A9000007508954081020900150026FF007508B1
:101AA00095409102C000000028090020210A00088A
:101AB000F1090008F50900086F0C00083D0C00084A
:101AC0007D0B0008000000000D0B00085D0B0008F6
:101AD000390B0008000000000000000000000000BA
:101AE000010B0008010B0008010B00082D0B00087A
:101AF0000000000009022900010100C032090400B1
:101B00000002030000000921110100012221000749
:101B100005810302002007050103020020000000E8
:101B20000921110100012221000000000A06000223
:101B30000000004001000000050D0008110D000824
:101B40001D0D0008390D0008550D0008710D000825
:101B50008D0D000812010002000000408304505760
:0C1B60000002010203010000040309045C
:04000005080000C02F
:00000001FF
