:020000040800F2
:1000000000180020F11B0008711C0008711C00087A
:1000100000000000000000000000000000000000E0
:10002000000000000000000000000000711C00083B
:100030000000000000000000711C00089120000872
:10004000711C0008711C0008711C0008711C00085C
:10005000711C0008711C0008711C0008711C00084C
:10006000711C0008711C0008711C0008711C00083C
:10007000711C0008711C0008711C0008711C00082C
:10008000711C00080000000000000000711C000846
:1000900000000000711C0008711C0008711C0008A1
:1000A00000000000711C0008711C0008711C000891
:1000B000711C000800000000711C0008B920000835
:0400C0005FF808F1EC
:1000C40010B5064C2378002B07D1054B002B02D02A
:1000D400044800E000BF0123237010BD4C08002039
:1000E40000000000E82E0008084B10B5002B03D0D8
:1000F4000749084800E000BF07480368002B00D107
:1001040010BD064B002BFBD09847F9E70000000018
:1001140050080020E82E00084C08002000000000D1
:100124007047C046072908D002DC052902DA704767
:100134000829FCD100230370F9E70123034A037063
:100144009446034B1B6863448360F0E78813000004
:100154008008002010B504001000012900D010BD53
:10016400022BFCD10222044902F0AAFB0028F6D19A
:10017400024B1B686360F2E7E02E00088008002051
:100184004023C25A043370B5C65A3400B24201DC6B
:10019400140016004623C55A134B01349C466410C0
:1001A4006544C36B002C0CD059781A7809020A43B1
:1001B400013C2A8002330235002CF5D14022C36B66
:1001C400825A9B19C3634023921BC252064B0749B0
:1001D4005E800B88064A134030225A40054B134375
:1001E4009BB20B8070BDC04600600040005C0040C4
:1001F400BF8FFFFF8080FFFF7F23174A034012D188
:10020400164917480B88184080235B014340134369
:100214009BB20B800B8813481840102343401A43A9
:1002240092B20A8017E0104940B28C4663449B00A6
:100234001988002807DA0B480840102141400A4376
:1002440092B21A8007E006480840802149014140E3
:100254000A4392B21A8070478080FFFF005C00401E
:100264008FBFFFFFBF8FFFFF00170010F0B5002303
:100274004022C64600B5436083600360C3600361E7
:1002840043618361C361036243628362C362C36384
:100294008352020048328AB083649380254A08ADB1
:1002A40005922A000363069305AB040003CB03C243
:1002B400214FFB68002B06D000221B680132002B63
:1002C400FBD1002A04D12A003B1D03CA03C33C60AE
:1002D400102002F02DF8061E1DD0311D0C2001F057
:1002E40073FC031D06CD06C3FB6804603360022360
:1002F400FE600293013B0193C021002390200093F0
:10030400032203334901C00501F0D0FD20000AB0E7
:1003140004BC9046F0BD094B984605E09847102070
:1003240002F006F8061ED8D143461B68002BF5D10F
:10033400FEE7C046690B0008840800206808002016
:10034400F0B50023DE46454657464E46BD4AE0B565
:10035400804603704260836080209027D7B014AC3D
:100364000121800201F098FFFF05402200212000B6
:100374004426276402F0CAFA0F235022A3551133EE
:10038400A3523EADB04A290038003F923E93A46484
:10039400E76401F0D7FEA36C26AA5A619A5D052A88
:1003A40001DD05229A552022636920215A8158686B
:1003B400002201F02DFF52230022E15A279801F078
:1003C40027FF80200121800201F066FF402390274F
:1003D400994629ACFF0540220021200044262764C9
:1003E40002F094FA0F234A46A3554133E2524D3B9F
:1003F4006B7100232B71EB714B46290038003E933F
:10040400A464E76401F09EFEA36C3BAA9A619A5D22
:10041400062A01DD06229A554022A36940215A8109
:100424005868002201F0F4FE2800FFF71FFF874BF5
:1004340012AE0993002332000A9309AB03CB03C223
:10044400EB69002B06D000221B680132002BFBD184
:10045400002A05D1320043AB03CA03C343462B61D0
:10046400102001F065FF7A4B071E9A4600D17CE10B
:10047400391D0C2001F0A8FB031D06CE06C343461C
:100484000360EB6912AE3B60724B320007930023AA
:10049400EF61089307AB03CB03C2EB68002B06D0D4
:1004A40000221B680132002BFBD1002A05D1320047
:1004B4003FAB03CA03C343463E93102001F038FF09
:1004C400071E00D145E1391D0C2001F07DFB031D01
:1004D40006CE06C343460360EB6812AE3B605E4B38
:1004E400EF60059300230693330005AA03CA03C3F0
:1004F400EB6A002B07D000221B680132002BFBD1D2
:1005040047AF002A06D147AF3B00320003CA03C3FA
:1005140043462B62102001F00BFF8146002800D1D6
:100524000BE14B460C20191D01F04EFB031D06CEBA
:1005340006C343464A460360EB6A0021EA6213603D
:100544005922A9542A6B012A25D001222A6300E0EA
:100554001B680131002BFBD1012900D14FE10DAB08
:10056400984601234E469946736842469C4633009A
:10057400083303CB03C248460E9B0D9A184200D1A0
:10058400F8E05B10634418001B6805219B589847EA
:100594003668002EE8D1002399464A465B33EA5474
:1005A40080204A462D4E0B3BF2520121000401F0FB
:1005B4007FFE11AB98461F234246137000235370ED
:1005C40001239A464346524640469A7001F038FE4B
:1005D40040235246F2524A464946F2524422B1520C
:1005E4001F4A8021F2525822B35A09020B43B352D4
:1005F400EE6A002E1FD0330000221B680132002B4C
:10060400FBD1012A00D10CE1012399463300424673
:100614000833706882CB82C24946129A119B1142F8
:1006240000D1E3E05210801802680521D35898479E
:100634003668002EEAD10B4B0B4E9A4608235227FC
:100644009B4634E017FCFFFF01030000590100083A
:10065400680800202501000829010008005C00400A
:1006640000BDFFFF02000500740800204623B360AC
:10067400774B706033600A2001F0FEFC08220021F1
:1006840003A802F043F92B6B032B00D17BE0462334
:10069400B3606F4B3360002373600A2001F0ECFCFD
:1006A400C82001F0E9FCE15B3C9801F0ABFDE15BA3
:1006B4003C9801F0A7FD0028F5D1534601932B6B1C
:1006C4000290032BD2D1634B63495193634B5293F2
:1006D4006B465A791B7912021343614A13806B46A5
:1006E400DA799B79120213435E4A13806B465A7A75
:1006F4001B7A120213435C4A13806B46DA7A9B7AA4
:1007040012021343594A138003ABAB644C235A4679
:10071400E852574B5A800B88564A134030225A40AD
:10072400554B13439BB20B80A5E79847102001F06B
:10073400FFFD8146002800D0F3E653461B68002BDA
:10074400F3D1FEE79847102001F0F2FD071E00D018
:10075400B9E653461B68002BF4D1FEE798471020F6
:1007640001F0E6FD071E00D082E653461B68002B0D
:10077400F4D1FEE758106044052190473668002EF6
:1007840000D0F1E607E7334B33495193334B52938F
:100794006B465A7B1B7B12021343314A13806B4610
:1007A400DA7B9B7B120213432E4A13806B465A7CDE
:1007B4001B7C120213432C4A13806B46DA7C9B7C0D
:1007C40012021343294A138005ABAB6400224C2365
:1007D400EA525A46264B5A800B88264A1340302246
:1007E4005A40254B13439BB20B8056E75210801896
:1007F400052198473668002E00D007E71BE73A002A
:10080400469B9C460BAB41CA41C30C9B0B9A1942B5
:1008140016D05B10634418001B689A580521904752
:10082400B9E60FAB469842CF42C3109B0F9E1A42C3
:100834000AD05B10C01803689E590521B047FAE638
:100844005B1063441800E9E75B10C018F5E7C04685
:100854000100460008000800045C004009009800FC
:10086400986000409A6000409C6000409E60004098
:1008740008600040BF8FFFFF8080FFFF00B585B098
:1008840001F0D4FB01A8FFF75BFDC046F0B5CE46EE
:10089400474680B5C46885B00E00002C1FD02300E5
:1008A40000221B680132002BFBD1012A23D002ABAA
:1008B40099460123984623004A4608333168606804
:1008C400A0CBA0C24546039B029A1D420CD05B10EC
:1008D400C01803689B5898472468002CEBD105B0D6
:1008E4000CBC90469946F0BD5B10C0189047246834
:1008F400002CE0D1F3E76B4610C8316860C860C3D0
:10090400019B009D1A4205D05B10E01803685D59F5
:10091400A847E4E75B10E018A847E0E760230A78FB
:10092400F0B5134000D16EE0202B3AD14B780B2B5D
:1009340000D96FE07E4A9B00D3589F465C23012474
:10094400C454593B8363CB883E2B00DDB2E05A0884
:100954001C4200D001329202764B92B25A80764900
:10096400764A0B8842241A40C0239B015340744AA0
:10097400462513439BB20B8004238363002358262C
:100984000353023C0353C3634653023D44536D482F
:1009940043800B886C480340302043401A4392B292
:1009A4000A80F0BD0223836303005633C363674B9D
:1009B4000364674B43645723C25C013BC35C12026C
:1009C4001343644A13804022C36B0133C363835AC5
:1009D400013B83525B4B3F3A5A8057495A4A0B8832
:1009E400134030225A40564B13439BB20B80D8E736
:1009F4000223836303005733C363544B0364544B90
:100A040043645823D8E74A780A2A17D00B2A20D0FF
:100A1400062A39D04849494A0B884B481A40802352
:100A24005B015340464A13439BB20B800B8803403F
:100A3400102043401A4392B20A80B2E70223836330
:100A440003005833C363414B0364414B436459234C
:100A5400B2E7582249888154543A82633C4AC363BA
:100A64004264384A03645380B7E756234A88C25421
:100A7400523B83630023F1E757224B881B128354B4
:100A8400042383630023E9E74A881212222A47D009
:100A9400212A1BD0022203642D4B8263436400226B
:100AA400002700230026DB19C3634023C252254BD1
:100AB4005E8092E75A09DB0601D1013A92B2264BD5
:100AC40092021A431B4B92B25A8048E70925234BE2
:100AD400183ACE883400964226DA02224621582556
:100AE400826340328652023A86520134C3634552CD
:100AF40002394252641037000022002CD3D0154D25
:100B0400ED1A59781A7809020A43013C5A53023300
:100B1400002CF6D14022825AC36B921B92B2C2E7D8
:100B24003F223F250E4BD4E714002E00D5E7C046E4
:100B34008C2D000804600040005C00408FBFFFFF64
:100B44008080FFFF00600040BF8FFFFF01000100B5
:100B540040005800586000400080FFFF002E00084D
:100B64000C2E0008F0B54546DE4657464E46442353
:100B7400E0B5BC4AB5B0D35A05001BB2002B00DA6D
:100B840082E04422B74B995A490500D5A0E2442398
:100B9400B44AD15A490400D57CE14423B14AD15A1C
:100BA400890400D5A6E14422AE4B995AC90400D564
:100BB400D0E14422AB4B995A090500D515E24423F0
:100BC400A84AD15A890500D54EE24423A54AD15AF0
:100BD400C90500D515E135B03CBC90469946A246FE
:100BE400AB46F0BD28AC9F4A9F49138826AE0B4004
:100BF4001380A38821789C46B3801F23607867887C
:100C0400E488317070707780F4800B40012B01D13F
:100C140000F0C5FD002B01D100F03AFC022B01D0FD
:100C240000F0A0FD60231940202901D100F0C1FD8E
:100C3400694663460B710979012801D100F03EFE33
:100C4400002801D100F018FE03281DD12B6B022BC4
:100C540001D100F008FE032B01D000F0F0FD002FBD
:100C640004D14B0602D00800FFF7C6FA3100280071
:100C7400FFF754FE0423AB630023EB632B647B4B2D
:100C840028006B64FFF77CFA4421764A535A9BB2DE
:100C940018B2002800DB74E70F241C4018D1DB06CF
:100CA40070D41388724803401380AB6B022B00D1BD
:100CB400FBE25922AB5C002BE6D04021695A0029A3
:100CC400E2D18020674C034334382352A954DBE734
:100CD400684BE618B60033881BB2002B00DA1FE31A
:100CE40033881B06D0D53388614A134033806300B0
:100CF4009C461B199B00EB181A0040321288002AEC
:100D040000D166E344331B88984618009A4201DCFC
:100D14001000904663461B199B00EB181A004632DC
:100D24001788554A0130914640104F44D96B00282A
:100D34000ED04A780B781202134301383B800231FB
:100D440002370028F5D163461B199B00EB18D96BB9
:100D540063461B199B00EB184144D9634146403359
:100D64001A88521A1A80454B454A9C466444E4004A
:100D740061803388134030225A40424B13439BB264
:100D8400338081E713881B0500D566E313881BB203
:100D9400002B00DB78E7138833490B4013803A4B70
:100DA4005F88BF05BF0D00D15DE2EC69002C00D166
:100DB40059E2230000221B680132002BFBD1012AD7
:100DC40000D13DE2012304AE9946B8460BE05B1026
:100DD400C0180368DF5943462C4A0021B8472468E9
:100DE400002C00D13FE2210033000831606884C93F
:100DF40084C34A46059B049F1A42E8D15B10C0187D
:100E0400E9E7D15A2248EC6A0140D152002C00D1C2
:100E1400E1E6230000221B680132002BFBD1012AEA
:100E240001D100F008FC012628AD23002A00083374
:100E3400606882CB82C2299B289A1E4209D05B102B
:100E4400C018036804219B5898472468002CECD1EF
:100E5400C1E65B10C018042190472468002CE4D13B
:100E6400B9E6C046005C00408F0F00004000580007
:100E74000F8FFFFF0017001000600040000C0008F7
:100E8400BF8FFFFF8080FFFF0460004018600040B8
:100E9400FFFEFFFFD15AD348EC6A0140D152002C27
:100EA40000D17AE6230000221B680132002BFBD11B
:100EB400012A01D100F032FC0127A84614AE230018
:100EC40032000833606822CB22C2159B149A1F4259
:100ED40000D1F3E05B10C018036801219B589847C8
:100EE4002468002CEBD145464423BF4AD15A8904D7
:100EF40000D458E6D15ABD48EC6A0140D152002CC6
:100F040000D150E6230000221B680132002BFBD1E4
:100F1400012A01D100F014FC0127A84618AE2300D1
:100F240032000833606822CB22C2199B189A1F42F0
:100F340000D17BE15B10C018036801219B589847DE
:100F44002468002CEBD145464422A74B995AC90486
:100F540000D42EE640210424585AA0435852A448F1
:100F64005852995AA348014099526B6B2A6B934289
:100F740000D11EE62B63022B00D187E200DC66E27F
:100F8400032B00D155E30827042B00D011E6EC6AAB
:100F9400002C00D10DE6230000221B680132002B37
:100FA400FBD1012A01D100F0E8FB0123A9469846B0
:100FB4001CAE210033000831606824C924C34146B3
:100FC4001D9B1C9A194200D15BE15B10C018036899
:100FD40039009B5898472468002CEAD14D46442296
:100FE400814B995A090500D4E9E5995A8248014090
:100FF40008209952043A995A01439952995A04384B
:10100400014399522B6B6B63042B00D1D7E5042366
:10101400EC6A2B63002C00D1D1E5230000221B686D
:101024000132002BFBD1012A00D1C8E30127A846D5
:1010340020AE210033000831606824C924C3219BF9
:10104400209A1F4200D126E15B10C01803680821D2
:101054009B5898472468002CEBD145464423624AA8
:10106400D15A890500D4B0E5D15A6448EC6A0140EC
:10107400D152002C00D1A8E5230000221B680132C4
:10108400002BFBD1012A00D136E30127A84624AE68
:10109400230032000833606822CB22C2259B249AA5
:1010A4001F4200D193E05B10C018036803219B58D2
:1010B40098472468002CEBD1454686E55B10C018A0
:1010C400012190472468002C00D0F8E645460BE740
:1010D400995A4B48014099528021083299521A88F2
:1010E40048491140802292000A431A801A884649CE
:1010F4000A4080210A431A80444A283911801A88F8
:10110400520605D51A8842490A40C0210A431A806A
:10111400354B40491A880A40202151403E4A0A432F
:1011240092B21A801A8837491140802292000A43E9
:101134001A801A8834490A40802109020A43182176
:101144001A80324A91803549D1801A88520406D5D2
:101154001A8833490A40C02109020A431A802249E5
:10116400304A0B88EC6A1A40C0239B0153402E4A34
:1011740013430B80002C00D109E5230000221B68D7
:101184000132002BFBD1012A00D166E20127A846D7
:1011940010AE230032000833606822CB22C2119BB8
:1011A400109A1F420AD05B10C018036800219B5894
:1011B40098472468002CECD14546E8E45B10C0183D
:1011C400002190472468002CE3D14546DFE45B10FE
:1011D400C018032190472468002C00D058E74546E6
:1011E400F3E4C046FFBFFFFF005C0040FFDFFFFFEA
:1011F40000BDFFFFFFEFFFFFFFF7FFFFFFFDFFFF56
:10120400FFFBFFFF8F89FFFF8F8FFFFF0060004010
:101214000F8FFFFFBF8FFFFF8080FFFF0084FFFF62
:101224008F0F00008FBFFFFF808000005B10C0188D
:10123400012190472468002C00D070E6454683E6DF
:101244002B0002A91433286950CB50C1039B029C84
:101254001A4200D159E35B10C01803681C593B00C3
:10126400D24A0021A047D24AD24BD3495A800B8894
:10127400D24A1A40C0239B015340D14A13430B80E6
:1012840002E55B10C018390090472468002C00D098
:101294008FE64D46A3E65B10C018082190472468EA
:1012A400002C00D0C5E64546D8E63E33EB5A002B69
:1012B40000D0E5E14223E95A033B0B4020D1402909
:1012C4001ED95420285A81421ADABE492B64696413
:1012D400BD49EB634B801188BC480140302041403C
:1012E400BB48014389B21180B2494B801388B3498A
:1012F4001940C0239B014B40184380B21080D8E4AE
:1013040005230022AB63AB4BAB495A800B88AB4A35
:101314001A40C0239B015340A94A13430B80C8E4DD
:101324003388AC4AEF6913403380AB4BE318DB00DE
:101334000193DB889B059B0D9A46002F3BD03B0015
:1013440000221B680132002BFBD1012A1ED008ABFE
:1013540098460123A1469B460AE05B10C81803681F
:101364001C5953469D4A4946A0473F68002F6CD0FC
:101374003A0043460832796811CA11C35A46099B98
:10138400089C1A42E9D158100818EAE72B6906A903
:101394009C462B00143381CB81C1079B069F1A42C4
:1013A40000D1ABE25B10634418001B68DF5953465D
:1013B4008A4A2100B8478023019ADB00D38033880E
:1013C4007E4A1A40C0239B0153407D4A1343338015
:1013D40086E4EE68002E00D156E4330000211B6839
:1013E4000131002BFBD1012900D109E20CAB984655
:1013F40063461F190123A3469946BF00EF194237DC
:1014040001953100434608313A88706830C930C3C9
:1014140049460C9B9A460D9B19420CD051465B10D1
:10142400C01803685B58594698473668002EE8D1BF
:10143400019DFFF729FC5B10C0185946D047366858
:10144400002EDED1019DFFF71FFC4C46B3E70527B4
:10145400012B00D19BE5FFF7ACFB564B5A88542374
:101464009205920DEA52533B0132AB63521001D103
:10147400FFF7B8FB4D4B28AC594918885918013A65
:1014840060520233002AF7D1FFF7ADFB06277EE551
:10149400092809D8534B80001B589F465A23FFB292
:1014A400EF54012F00D857E24349444A0B88474878
:1014B4001A4080235B015340454A13439BB20B807F
:1014C4000B880340102043401A4392B20A80FFF76E
:1014D400DBFB012CE8D12B6B022B00D10BE3032B9C
:1014E40011D10223AB632B005A33EB633E4BFFF75E
:1014F400C5FB3B12022B00D1FAE2032B00D1EFE231
:10150400012B00D1D2E22C492C4A0B882F481A40D7
:1015140080235B0153402E4A13439BB20B800B88FC
:101524001840102343401A4392B20A80FFF7ACFBE1
:101534006346002BB8D1002CB6D12B6B032BE2D021
:101544007F231F4000D0E7E280211B4A333BD15266
:101554006246483BAB633E33EA52023BEA52624680
:10156400EA6346222839A952023AAB522800FEF710
:1015740007FE2B6B012B01D1FFF786FB01232B63A5
:1015840004332493280024A92030FFF77FF9FFF7C0
:101594007BFB012F01D0FFF777FB5B23EF54573B15
:1015A400AB630023EB63FFF769FBC04618600040A0
:1015B4000084FFFF04600040005C00408FBFFFFF19
:1015C400808000004000580000600040BF8FFFFF93
:1015D4008080FFFF8F0F0000000C0008D8600040DF
:1015E400E89FFFBFBC2D0008010001002B6B023BEC
:1015F400012B01D9FFF748FB0022CB4B1A705B3259
:10160400AA5C002A01D002221A700222AA636CE7A3
:101614002B6B023B012B00D946E7012F01D0FFF7CA
:1016240033FB00235B22AB54573AAA63EB63FFF707
:1016340025FB0727ABE4286A26AB243512CD12C359
:10164400279B269C1A4200D1CBE05B10C01803688C
:101654001C590421A047FFF7BEFA2B000EA924331E
:10166400286A50CB50C10F9B0E9C1A4200D1BBE09C
:101674005B10C01803681C590021A047FFF787FAC4
:101684006E5A3000B34201DC18001E004622AC5AE8
:10169400A64A0130944640106444E96B00280CD0FB
:1016A4004A780B7812021343013823800231023442
:1016B4000028F5D14023E96BEB5A402289199B1B82
:1016C400E963AB52994B9A495E800B88994A002092
:1016D400134030225340984A13439BB20B80974BDC
:1016E40058800B8896481840C0239B0143401A43F6
:1016F40092B20A80FFF7DDFA2B0022A92433286A6C
:1017040050CB50C1239B229C1A4276D05B10C01848
:1017140003681C590321A047FFF757FA2B0012A9AD
:101724002433286A50CB50C1139B129C1A425ED0BA
:101734005B10C01803681C590121A047FFF72DFA5C
:101744002B0016A92433286A50CB50C1179B169C32
:101754001A424FD05B10C01803681C590121A047DE
:10176400FFF721FA13887649194080235B014B4027
:1017740074490B431380FFF787FA2B001AA924330B
:10178400286A50CB50C11B9B1A9C1A4251D05B1043
:10179400C01803681C593900A047FFF70AFA2B6BDD
:1017A400032B00D080E66246FC331340012B00D9A2
:1017B4007AE631002800FFF7B1F8FFF765FA29004F
:1017C4001EAB2431286A50C950C31F9B1E9C1A4269
:1017D40032D05B10C01803681C590821A047FFF7DA
:1017E400EEF95B10C01834E75B10C01844E75B10D7
:1017F400C018A1E75B10C018B0E75B10C01889E7F8
:1018040063461B199B00EB1842331B880AAE9C46A7
:101814002B0001CB84CB84C60B9B0A9E194271D04A
:101824005B10C01803689E5962462100B047FFF759
:101834002BFA5B10C018AEE75B10C018CDE7138815
:101844003F493C48194080235B014B403A490B43D4
:101854009BB213801388034010204340194389B27C
:101864001180FFF711FA4B0601D1FFF70DFA0800BA
:10187400FEF7C2FCFFF708FA2B6B022BF3D0032B05
:10188400DDD17F20634608401B0641D400283FD0A9
:101894002D4BC0229C466044800003889201134073
:1018A4002A4A9446634459425941CBB2284A138088
:1018B4000223EA63AB63274BFFF7E0F92B6B022BA0
:1018C400D1D0032BBBD1002F01D0FFF7DDF97F204E
:1018D400084001D1FFF7D8F963461B0600D50EE195
:1018E400194B174A9C466044800003881A408023A1
:1018F4005B015340134A134303805AE75B1063446C
:10190400180054E55B10C0188EE75B10C018A6E4FD
:101914000D4B9C4630236044800002881340103BEA
:1019240059425941CBB2C1E76C0800200060004025
:10193400005C0040BF8FFFFF8080FFFF0460004019
:101944008FBFFFFF808000000017001000F0FFFF32
:101954006E080020020002002B6B022B41D0032BE7
:1019640000D0D0E5002F01D0FFF784F97E4A138818
:101974005B0605D513887D490B407D490B431380D5
:10198400794B7C491A880A407B490A431A801A8891
:10199400520405D51A8875490A4078490A431A80C1
:1019A400714A7749138828000B4073490B4313800D
:1019B40004234222AB6300235821AB52023AAB52B8
:1019C400EB634633E952023BEA52FEF7D9FB2B6B39
:1019D400022B01D1FFF758F902232B63043324931C
:1019E400D0E5002F01D1FFF745F95F4B65491A880F
:1019F4001140C022D2000A431A801A886249114059
:101A040081220A4398211A80604A11801A8852065A
:101A140005D51A885E491140C0220A431A80524BE8
:101A240054491A88114020224A4053490A431A80D3
:101A34001A8854491140C022D2000A431A801A88D5
:101A440051490A4053490A43D8211A804F4A918088
:101A54008021C900D1801A88520406D51A884E49BB
:101A64000A40C02109020A431A803F49444A0B88AC
:101A740028001A40C0239B0153403F4A13430B8064
:101A840004234222AB6300235821AB52023AAB52E7
:101A9400EB634633E952023BEA52FEF771FB2B6BD0
:101AA400032B01D1FFF7F0F8032396E712233B4AF7
:101AB400002C01D1FFF7E8F8A34200DC1C0002234C
:101AC400AB634033EC52023BEC525821EA634622AA
:101AD400A952023AAB522800FEF752FBFFF7D4F8A2
:101AE400FFB2052F00D90EE52D4BBF00DB599F46F1
:101AF40029232C4ADCE700225A23EA54F1E42A4B36
:101B04001C4A9C466044800003881A4010235340BA
:101B1400194A134303804CE65923EF54553BAB63F6
:101B2400224BEC636B642C642800FEF729FB2B6BBF
:101B3400022B01D1FFF7A8F802232B63043324936B
:101B440020E508231A4AB3E70C231A4AB0E7162300
:101B5400194AADE72023194AAAE70423184AA7E73C
:101B64000823184AA4E7C046045C00400F0F000095
:101B7400C0800000BF8FFFFF8080000080C0000095
:101B84008FBFFFFF8F89FFFF8F8FFFFF086000402B
:101B94000F8FFFFF018000008F0F0000782E0008D8
:101BA400E42D00084C2E00080017001040005800D7
:101BB400D82E00088C2E0008982E0008B82E000895
:101BC400FC2D0008B02E000808007047044A136872
:101BD400002B03D01818106018007047014BF9E768
:101BE40070080020F0080020002070471348854644
:101BF40013480168090E134A914205D1124813494A
:101C04000160134813490160002103E0124B5B5843
:101C1400435004311148124B42189A42F6D3114AE8
:101C240002E00023136004320F4B9A42F9D300F010
:101C34001FF800F059FBFEF721FEFEE70018002014
:101C4400040000001F000000181002400100000002
:101C54000000014000000000182F000800000020D0
:101C64004C0800204C080020F0080020FEE700008B
:101C740001214B4B70B51A684A480A431A605A68E6
:101C840002405A601A68484802401A601A68474875
:101C940002401A605A68464802400F205A60DA6AC5
:101CA4008243DA621A6B434802401A635A6B653006
:101CB4008A435A63002240499A600A68FF3002430B
:101CC4000A608022596B52020A4380215A638902B6
:101CD4005A6B0A42FCD01A6838490A4080211A60BB
:101CE4002F4A890413680B42FCD180210120136B15
:101CF4002B4C8B43304913630B6803430B60F02177
:101D040053688B4353605368ED390B4353600C2283
:101D1400636813400C2BFBD180256368284A2D058A
:101D2400134063602800012100F0C2FA2369254AA8
:101D34001D4325612369244913402361234B5A68B9
:101D44000A405A608022596892050A435A605A68C8
:101D5400120E12065A6059681D4A0A435A608822B4
:101D6400596892030A435A601A681A490A401A6069
:101D74008022196892010A4340211A601A680A43B2
:101D84001A601A6820390A431A600122A3691039BB
:101D94001343114AA36113680B43136070BDC0461B
:101DA400001002400CB8FFF8FFFFF6FEFFFFFBFF38
:101DB400FFFFC0FFACFEFFFF00200240FFFFFFFE5D
:101DC400FFF8FFFFFFFFFFF7FFFFFF48006C004035
:101DD4007FBB0000FFC0FFFF00000140F0B5474695
:101DE400CE4680B583B098460AAB1D780BAB1F78FE
:101DF4009023040089461600DB05984245D0284B01
:101E0400984245D0274B984245D0274B80209C428E
:101E140044D0C003012100F03FFA4B4642460093F0
:101E24006B465A71012E2CD0002E26D0022E1CD0C7
:101E3400032E02D102236A461371012D03D0002D13
:101E440001D0022D01D16B46DD71002F11D0012F7D
:101E540002D100236A4693716946200000F072F9AA
:101E640003B00CBC90469946F0BD03236A46137137
:101E7400E3E701236A469371EEE701236A4613718F
:101E8400DBE700236A461371D7E780208002C1E7AD
:101E94008020C002BEE780200003BBE74003B9E70F
:101EA4000004004800080048000C004870B50C000D
:101EB400050082B006A907A80978007808AE36782C
:101EC4000190009128002100FFF788FFE30721D447
:101ED400A30726D463072BD4230730D4E30635D4D1
:101EE400A3063AD463063FD4230644D4E30549D475
:101EF400A3054ED4630553D4230558D4E3045DD419
:101F0400A30462D4630467D424B2002C00DA6CE026
:101F140002B070BD32000021280000F07FF9A30751
:101F2400D8D532000121280000F078F96307D3D511
:101F340032000221280000F071F92307CED53200C7
:101F44000321280000F06AF9E306C9D53200042110
:101F5400280000F063F9A306C4D532000521280047
:101F640000F05CF96306BFD532000621280000F0BA
:101F740055F92306BAD532000721280000F04EF99E
:101F8400E305B5D532000821280000F047F9A30580
:101F9400B0D532000921280000F040F96305ABD523
:101FA40032000A21280000F039F92305A6D53200B1
:101FB4000B21280000F032F9E304A1D532000C21F2
:101FC400280000F02BF9A3049CD532000D21280031
:101FD40000F024F9630497D532000E21280024B2BE
:101FE40000F01CF9002C00DB92E732000F212800DE
:101FF40000F014F98CE7C046002900D114E0012256
:102004000023884206D9003104D45200490001D487
:102014008842FAD8884201D3401A13434908520827
:10202400F8D1014618467047FFF7FEFF10B50024AB
:10203400FA210C4B89001C600B4B1868FFF7DCFF7E
:102044000A4B013898420CD8C021094A090650604D
:102054000848036A1B021B0A0B43036207239460AC
:10206400136010BD8008002004000020FFFFFF0063
:1020740010E000E000ED00E0034A1368181813684C
:102084009842FCD87047C04680080020024A136872
:10209400013313607047C0468008002070B5050006
:1020A400C068002804D0046800F04CF9201EFAD15E
:1020B400280070BD194970B5CC68002C13D02300DA
:1020C40000221B680132002BFBD1012A17D0012505
:1020D400E3686068A2681D4208D15B10C01890478D
:1020E4002468002CF4D1BFF34F8F70BD5B10C0186F
:1020F40003689B5898472468002CE9D1F3E78B6860
:1021040008684C681A4205D05B10C01803681C5953
:10211400A047E8E75B10C018A047E4E78408002064
:10212400002310B50448054A036043608360C3601C
:10213400034900F0C9F810BD840800200000002005
:10214400A1200008F0B557464546DE464E46032416
:10215400E0B58C4683B00968002200230127A0461D
:1021640003E001330232102B27D03C009C402500B1
:102174000D40AC42F5D165462D796E1EAB46012E5D
:1021840022D946469640F443260001945D46954084
:10219400046801332640066004682543056045460B
:1021A4009540C468AC43C4606446E479C56894400F
:1021B4002C43C4600232102BD7D103B03CBC9046F0
:1021C4009946A246AB46F0BD46469640F64385681E
:1021D4000196354085608568AA4665466D799540C7
:1021E400A94655464E46354385608588019EA543DC
:1021F40085806546AD7984889D402C43A4B2848053
:10220400C4E7C046008A0840411E8841C0B27047F6
:10221400002A01D1018570478161FCE7072310B5CD
:102224000F240B409B009C409A40C9088900401829
:10223400016AA1430162016A0A43026210BDC046F9
:10224400F0B58378002B08D11F22037811491A4076
:102254000123934080228B50F0BD0E4B03219C46FA
:10226400FF231F000478C02640782140C900800164
:102274008F4003408B40A20892006244B6009559F7
:10228400BD432B4393511F220123224093406246B6
:102294001360E1E700E100E0044A5369002902D138
:1022A40083435361704718435061FBE700100240B9
:1022B400044AD369002902D18343D3617047184388
:1022C400D061FBE7001002400B0010B501001800BC
:1022D40000F002F810BDC04610B513000A0001005A
:1022E400022000F07FFB10BD70B50D4E0D4D002493
:1022F400AD1BAD1005D0A300F35801349847A54297
:10230400F9D100F0EFFD084E084D0024AD1BAD10CF
:1023140005D0A300F35801349847A542F9D170BD04
:10232400082F0008082F0008082F0008142F0008A1
:1023340010B5034B0100186800F00EF810BDC0463C
:102344000800002010B5034B0100186800F03AFCA7
:1023540010BDC04608000020F0B557464546DE468D
:102364004E46E0B50D000B3583B00700162D00D89E
:102374009FE007239D4300D5C4E0A94200D9C1E0F2
:1023840000F00EFBF823FF339D4200D88FE2680A69
:1023940000D1BBE0042800D962E138239846A8099B
:1023A40080443930C100D24E71180839CC68A1423A
:1023B40019D0032362689A431300521B0F2A00DDCD
:1023C400AAE0002A00DB88E003239C4608E062467A
:1023D400636893435A1B0F2A00DD9DE0002A7CDAD0
:1023E400E468A142F3D1320034690832944200D146
:1023F40090E10323616899438946491B0F2900DD55
:1024040062E172613261002900DB87E0B94A4B4620
:10241400914500D930E1DB08FF3A9910FF3A8A4030
:10242400DB0071689B190A4399687260E360A160DC
:102434009C601300CC6001218210914099426FD8B6
:102444000B4205D103229043490004300B42FBD0D8
:1024540003239846C3009946B144CC46824663465A
:10246400DC68A44507D157E1002A00DB66E1E46893
:10247400A44500D150E14246636893435A1B0F2A96
:10248400F2DD01208046611905436560A068E568B6
:102494000836C560A8604046F160B16010434860EA
:1024A400CE608E603800E25000F082FA20000830DE
:1024B40021E0102926D8380000F072FA10251823DC
:1024C40002208B4EF3181A005C68083A944200D13B
:1024D4002EE1032362689A431300E268A168CA608C
:1024E40091600122E318596838000A435A6000F0E9
:1024F4005FFA2000083003B03CBC90469946A246DF
:10250400AB46F0BD0C2300203B60F4E780213F2361
:1025140040208900984646E7404664E74B46E0E79A
:102524000323B46862689A439046AA4203D3531BB8
:102534000F2B00DD86E0230043446F4A01936F4B69
:1025440093461B681268EB18013200D168E16C4AAB
:10255400944663441B0B1B0300930099380000F05E
:102564002FFA03008146013361D0019B834200D9D5
:10257400FFE0644B009A9A461B689C4653466244AB
:102584001A60019B1100834200D155E15B461B6830
:10259400013300D16CE14B46019A9B1A59185346FA
:1025A400196007234A46134000D124E108218946D3
:1025B4005549D21A9144CB1A009A38004A4411055D
:1025C400090D5B1A19009B4600F0FAF9431C00D16F
:1025D40042E14B46C01A01235844184353461B6832
:1025E4005B441900534619604B46B3605860B442CB
:1025F40013D043460F2B00D8E8E043460722606817
:102604000C3B9343063A024005201A436260E218E9
:10261400506090600F2B00D922E13C4B1A68914224
:1026240000D919603A4B1A68914200D91960032302
:10263400B46862689A43531B954200D9C9E00F2BD2
:1026440000DCC6E0012229001343114365196160CF
:102654003800B5606B6000F0ABF9200008304AE741
:1026640014287AD9542800D9BAE06E239846280B46
:1026740080446F30C10096E65A0A042A73D9142A9A
:1026840000D9D0E011005C325B31D20008235B42F8
:102694009C46B218944463469A680323984694452A
:1026A40000D1ABE0434651689943894500D395E096
:1026B40092689445F6D16346DA6873686146E260CD
:1026C400A1609460CC60B6E6012360191D43656087
:1026D40070613061C26082601A004B460A434260F6
:1026E4003800E15000F064F92000083003E7C046E8
:1026F40038040020FF01000040080020C408002026
:102704000F1000009408002008100000BC080020EE
:10271400C008002073688EE608239B46073BDC4410
:102724009B46DA4443465246134200D097E637E0CC
:10273400DC680230A34200D155E6CAE60122E31860
:10274400596838000A435A60E368A268D3609A6003
:1027540000F02EF920000830CDE65B239846804433
:102764005C30C1001FE69A09110039323831D200B9
:102774008CE7B44200D05AE74F4B009A9A461B6844
:102784009C465346624411001A60FFE608235B42EC
:102794009C46E1444B469B680138994500D084E04F
:1027A40043460342F2D173688B43736049009942F4
:1027B40000D9B5E6002900D1B2E650460B4200D05C
:1027C40048E6490004300B42FBD043E601234A4665
:1027D4005360380000F0ECF800208CE694466AE779
:1027E400AA235B00984211D8DD3B9846E80B80444D
:1027F4007830C100D7E580235B01DDE68910023B18
:102804008B40726813437360624657E72B4B9842C0
:102814001CD87C239846A80C80447D30C100C2E5B6
:102824001033009399E6542A26D84B461A0B11000C
:102834006F326E31D20029E71B0500D0A6E60120D5
:10284400009BB268434403435360E6E6FE217E23C3
:102854007F2089009846A6E5002301209B46BDE61B
:1028640021003800083100F0ADF953461968D4E668
:102874005B464A461A6094E6AA2149008A4206D871
:102884004B46DA0B110078327731D200FEE60B4961
:102894008A4206D84B469A0C11007D327C31D20014
:1028A400F4E6FE227E219200F0E673687EE72B00B8
:1028B400E808083305E6C0469408002054050000E3
:1028C40010B5032A1CD903000B439B070FD00378D0
:1028D4000C788218A34204D015E003780C78A34244
:1028E40011D1013001318242F7D1002010BD0368BB
:1028F4000C68A342EBD1043A04300431032AF6D81D
:10290400002AE4D1F1E7181BF0E7C046F0B58307CD
:1029140043D0541E002A3FD0CEB20200032502E069
:102924001A00013C38D3531C16702B42F8D1032CE7
:102934002AD9FF220A40150215432A0415430F2CF5
:1029440014D927001A00103F3E09013636019E199A
:10295400156055609560D56010329642F8D10F220B
:1029640097431037DB191440032C0DD91A00271F85
:10297400BE080136B6009E1920C2B242FCD1032221
:1029840097430437DB191440002C05D0C9B21C1935
:10299400197001339C42FBD1F0BD14000300C6E75B
:1029A40010B5024800F0ECF910BDC046D80800206C
:1029B40010B5024800F0E6F910BDC046D808002062
:1029C400002370B5064C050008002360FFF7FEF8ED
:1029D400431C00D070BD2368002BFBD02B60F9E7AB
:1029E400EC080020F0B54E464546DE465746E0B5B5
:1029F400364D83B00600286898460F00914600F0D3
:102A0400BFF9334B1C68A4235B00E058002852D064
:102A140043681F2B13DC5A1C0192002E28D1019A03
:102A240002339B0042601F50286800F0ABF900207D
:102A340003B03CBC90469946A246AB46F0BD254B3C
:102A4400002B3DD0C8204000FFF772FC002837D08F
:102A5400A42200235200A15843600160A0504032D8
:102A6400835004328350013301930023002ED6D0C7
:102A74009A00924682444A46882154466250C422AF
:102A84005200914681444A468739994012688B46E0
:102A94000A4394464A4661461160842241465200E4
:102AA400A150022EBBD102005C468D32FF32116868
:102AB4000C431460B3E720004D30FF30E050A7E72B
:102AC400286800F05FF901204042B1E7480800207F
:102AD400E42E000835230008034B10B5002B02D068
:102AE4000248FFF781F810BD00000000F52A000835
:102AF40070B5094B094CE41AA41009D0084AA5186A
:102B0400AD00ED182B68013C9847043D002CF9D129
:102B140000F0EEF970BDC046142F0008182F00080D
:102B2400FFFFFF3FF8B50C000600FFF739FF204F09
:102B3400BB685D6803239D431E4B2C1B9C46644469
:102B4400240B1D4B013C24039C4207DD0021300073
:102B5400FFF736FFBB685B19984204D03000FFF7DB
:102B640027FF0020F8BD61423000FFF729FF431C16
:102B74000DD00122BB682D1B15435D600F4B300047
:102B84001A68141B1C60FFF713FF0120EAE70021F9
:102B94003000FFF715FFBA68831A0F2BDEDD0849F2
:102BA4000968401A0549086001210B435360D5E7C1
:102BB40038040020EF0F0000FF0F000094080020ED
:102BC40040080020F8B504000D1E3CD0FFF7E8FED5
:102BD4002900083948680123050003269D434A1942
:102BE4009C46614F5368B343BE68B24256D06646B2
:102BF400536006420AD13E0008680836091A2D18A7
:102C04008868B04265D0CE68C660B0600120D6182E
:102C14007668064233D0554B284348604D519D4257
:102C240012D8ED08FF3BAA10FF3B93407A68ED00F1
:102C340013437B60EF19BB68CF608B60B960D960C8
:102C44002000FFF7B5FEF8BD680A042850D8A8098B
:102C5400020039303832C000381808388368032637
:102C640098424CD05A68B243954230D29B689842FD
:102C7400F8D1C368CB6088609960C160E0E7ED1863
:102C84003B4E9368B34242D0D2682843DA609360E3
:102C9400364B48604D519D42D6D8C2E76246EB1888
:102CA400024206D10A68891A88689B18CA68C260F9
:102CB400906001221A434A602E4AB9601268934216
:102CC400BED32D4B20001968FFF72CFFB8E718007E
:102CD400CFE76646D018406830423FD190685D190E
:102CE400D368C360986063462B434B604D51A7E79C
:102CF400142814D802005C305B32C000ACE7012316
:102D0400921093407A6813437B600300B2E7284330
:102D1400D9609960CB608B6048604D5190E754282E
:102D240005D8280B02006F306E32C00094E7AA2247
:102D34005200904205D8E80B020078307732C00088
:102D44008AE70E4A904205D8A80C02007D307C32F6
:102D5400C00081E7FE207E2280007DE763462B438E
:102D64004B6015606CE7C04638040020FF0100008A
:102D74004004002044080020C4080020540500003A
:102D84007047C0467047C046180A0008180A000871
:102D9400F4090008A8090008180A0008180A00081D
:102DA400180A0008180A0008180A00084009000850
:102DB4007C0A00086E0A0008F015000814160008C2
:102DC400AC14000896150008AC140008341500086B
:102DD400F6140008AC140008D6140008A014000867
:102DE4005E1B0008581B0008521B00084C1B0008FF
:102DF400461B0008641B000804030904092111018F
:102E04000001223F0000000005010906A10175012F
:102E14009508050719E029E71500250181029501A8
:102E240075088103950575010508190129059102A5
:102E34009501750391039506750815002565050729
:102E4400190029658100C0000902290001010080E0
:102E5400FA09040000020300010009211101000124
:102E6400223F000705810309000A07050103020048
:102E74000A0000001201000200000040FECAADDE9C
:102E840000020102030100000C0331002E00300097
:102E94002E00300016034F004E0045002000420073
:102EA4005500540054004F004E0000000803690010
:102EB4007400660020034F004E00450020004200CD
:102EC4005500540054004F004E0000000000000064
:102ED40000000000080363006600670002010000B0
:102EE40010000020F8B5C046F8BC08BC9E467047E8
:0C2EF400F8B5C046F8BC08BC9E4670470C
:082F0000CCF3FF7F010000008B
:0C2F0800DD2A0008ED000008252100086B
:042F1400C5000008EC
:102F180000000000006CDC0210000020000000002F
:102F280000000000FC02002064030020CC03002005
:102F38000000000000000000000000000000000089
:102F48000000000000000000000000000000000079
:102F58000000000000000000000000000000000069
:102F68000000000000000000000000000000000059
:102F78000000000000000000000000000000000049
:102F88000000000000000000000000000000000039
:102F98000000000000000000000000000000000029
:102FA8000000000000000000000000000000000019
:102FB8000000000000000000000000000000000009
:102FC80000000000000000000100000000000000F8
:102FD8000E33CDAB34126DE6ECDE05000B000000BD
:102FE80000000000000000000000000000000000D9
:102FF80000000000000000000000000000000000C9
:1030080000000000000000000000000000000000B8
:1030180000000000000000000000000000000000A8
:1033580038040020380400204004002040040020E5
:103368004804002048040020500400205004002095
:103378005804002058040020600400206004002045
:1033880068040020680400207004002070040020F5
:1033980078040020780400208004002080040020A5
:1033A8008804002088040020900400209004002055
:1033B8009804002098040020A0040020A004002005
:1033C800A8040020A8040020B0040020B0040020B5
:1033D800B8040020B8040020C0040020C004002065
:1033E800C8040020C8040020D0040020D004002015
:1033F800D8040020D8040020E0040020E0040020C5
:10340800E8040020E8040020F0040020F004002074
:10341800F8040020F8040020000500200005002022
:1034280008050020080500201005002010050020D0
:103438001805002018050020200500202005002080
:103448002805002028050020300500203005002030
:1034580038050020380500204005002040050020E0
:103468004805002048050020500500205005002090
:103478005805002058050020600500206005002040
:1034880068050020680500207005002070050020F0
:1034980078050020780500208005002080050020A0
:1034A8008805002088050020900500209005002050
:1034B8009805002098050020A0050020A005002000
:1034C800A8050020A8050020B0050020B0050020B0
:1034D800B8050020B8050020C0050020C005002060
:1034E800C8050020C8050020D0050020D005002010
:1034F800D8050020D8050020E0050020E0050020C0
:10350800E8050020E8050020F0050020F00500206F
:10351800F8050020F805002000060020000600201D
:1035280008060020080600201006002010060020CB
:10353800180600201806002020060020200600207B
:10354800280600202806002030060020300600202B
:1035580038060020380600204006002040060020DB
:10356800480600204806002050060020500600208B
:10357800580600205806002060060020600600203B
:1035880068060020680600207006002070060020EB
:10359800780600207806002080060020800600209B
:1035A800880600208806002090060020900600204B
:1035B8009806002098060020A0060020A0060020FB
:1035C800A8060020A8060020B0060020B0060020AB
:1035D800B8060020B8060020C0060020C00600205B
:1035E800C8060020C8060020D0060020D00600200B
:1035F800D8060020D8060020E0060020E0060020BB
:10360800E8060020E8060020F0060020F00600206A
:10361800F8060020F8060020000700200007002018
:1036280008070020080700201007002010070020C6
:103638001807002018070020200700202007002076
:103648002807002028070020300700203007002026
:1036580038070020380700204007002040070020D6
:103668004807002048070020500700205007002086
:103678005807002058070020600700206007002036
:1036880068070020680700207007002070070020E6
:103698007807002078070020800700208007002096
:1036A8008807002088070020900700209007002046
:1036B8009807002098070020A0070020A0070020F6
:1036C800A8070020A8070020B0070020B0070020A6
:1036D800B8070020B8070020C0070020C007002056
:1036E800C8070020C8070020D0070020D007002006
:1036F800D8070020D8070020E0070020E0070020B6
:10370800E8070020E8070020F0070020F007002065
:10371800F8070020F8070020000800200008002013
:1037280008080020080800201008002010080020C1
:103738001808002018080020200800202008002071
:103748002808002028080020300800203008002021
:0C375800FFFFFFFF00000200C808002077
:0400000508001BF1E3
:00000001FF
